:100000000C9480000C94A8000C94A8000C94A800F8
:100010000C94A8000C94A8000C94A8000C94A800C0
:100020000C94A8000C94A8000C94A8000C94A800B0
:100030000C94A8000C94A8000C94A8000C94A800A0
:100040000C9480090C94A8000C944E090C94280977
:100050000C94A8000C94A8000C94A8000C94A80080
:100060000C94CA090C94A8004E414E494E4954596B
:10007000494E46CDCCCC3D0AD7233C17B7D1387773
:10008000CC2B329595E6241FB14F0A000020410089
:1000900000C84200401C4620BCBE4CCA1B0E5AAED3
:1000A000C59D7400000000240027002A0000000005
:1000B00000250028002B0000000000230026002956
:1000C0000004040404040404040202020202020301
:1000D000030303030301020408102040800102040B
:1000E000081020010204081020000000080002018E
:1000F0000000030407000000000000000000E50A03
:1001000011241FBECFEFD8E0DEBFCDBF23E0A2E6B3
:10011000B1E001C01D92AB36B207E1F711E0A0E0FB
:10012000B1E0E0E4F1E302C005900D92A236B10720
:10013000D9F710E0C0E8D0E004C02197FE010E948A
:100140009D16CF37D107C9F70E944E0B0C949E180D
:100150000C9400008091CA019091CB01891B990BEE
:1001600008950895AF92BF92CF92DF92EF92FF92DF
:100170000F931F93CF93DF936C017B018B01040FCF
:10018000151FEB015E01AE18BF08C017D10759F06B
:100190006991D601ED91FC910190F081E02DC601AD
:1001A0000995892B79F7C501DF91CF911F910F91A7
:1001B000FF90EF90DF90CF90BF90AF900895FC013B
:1001C000538D448D252F30E0842F90E0821B930BBC
:1001D000541710F0CF96089501970895FC01918D62
:1001E000828D981761F0A28DAE0FBF2FB11D5D9665
:1001F0008C91928D9F5F9F73928F90E008958FEF07
:100200009FEF08952FB7F8948091A5029091A602D0
:10021000A091A702B091A8022FBF8093B102909342
:10022000B202A093B302B093B40289EA92E00E94B2
:10023000EE0097FF26C02FB7F8948091A502909109
:10024000A602A091A702B091A8022FBF4091B102CF
:100250005091B2026091B3027091B402841B950B6D
:10026000A60BB70B4091AD025091AE026091AF0268
:100270007091B00284179507A607B707B0F28FEF09
:100280009FEF0895FC01918D828D981731F0828D3A
:10029000E80FF11D858D90E008958FEF9FEF089591
:1002A000FC01918D228D892F90E0805C9F4F821BF5
:1002B00091098F739927089589EA92E00E9450016D
:1002C00021E0892B09F420E0822F089580E090E05E
:1002D000892B29F00E945C0181110C940000089583
:1002E000FC01A48DA80FB92FB11DA35ABF4F2C91AB
:1002F000848D90E001968F739927848FA689B789A2
:100300002C93A089B1898C91837080648C93938D98
:10031000848D981306C00288F389E02D80818F7D3B
:1003200080830895EF92FF920F931F93CF93DF93F3
:10033000EC0181E0888F9B8D8C8D98131AC0E88921
:10034000F989808185FF15C09FB7F894EE89FF89F0
:100350006083E889F98980818370806480839FBF8E
:1003600081E090E0DF91CF911F910F91FF90EF908E
:100370000895F62E0B8D10E00F5F1F4F0F7311279E
:10038000E02E8C8D8E110CC00FB607FCFACFE889D9
:10039000F989808185FFF5CFCE010E947001F1CFF0
:1003A000EB8DEC0FFD2FF11DE35AFF4FF0829FB74D
:1003B000F8940B8FEA89FB8980818062CFCFCF933D
:1003C000DF93EC01888D8823B9F0AA89BB89E8897D
:1003D000F9898C9185FD03C0808186FD0DC00FB623
:1003E00007FCF7CF8C9185FFF2CF808185FFEDCFA1
:1003F000CE010E947001E9CFDF91CF910895833043
:1004000081F028F4813099F08230A9F00895873086
:10041000A9F08830C9F08430B1F4809180008F7DDC
:1004200003C0809180008F7780938000089584B509
:100430008F7784BD089584B58F7DFBCF8091B00008
:100440008F778093B00008958091B0008F7DF9CFB1
:100450001F93CF93DF93282F30E0F901E751FF4F2F
:100460008491F901EB52FF4FD491F901EF53FF4F03
:10047000C491CC23A9F0162F81110E94FF01EC2F0B
:10048000F0E0EE0FFF1FE355FF4FA591B4918FB73A
:10049000F894EC91111108C0D095DE23DC938FBF46
:1004A000DF91CF911F910895DE2BF8CF60E080910E
:1004B0005C030E9428028BE090E00197F1F7089519
:1004C000CF93DF9390E0FC01EB52FF4F24918F53C9
:1004D0009F4FFC0184918823D1F090E0880F991FF1
:1004E000FC01ED55FF4FA591B491FC01E355FF4F81
:1004F000C591D49161110EC09FB7F8948C91E22FF1
:10050000E0958E238C932881E223E8839FBFDF91BF
:10051000CF9108958FB7F894EC91E22BEC938FBFB5
:10052000F6CFCF93DF93CAE5D3E060E08A810E94E3
:10053000280261E08A810E94600260E088810E9456
:10054000280261E088810E94600261E089810E9446
:10055000600261E08A810E9428028BE090E00197AE
:10056000F1F7DF91CF9108953FB7F8948091A601FC
:100570009091A701A091A801B091A90126B5A89BCF
:1005800005C02F3F19F00196A11DB11D3FBFBA2F25
:10059000A92F982F8827BC01CD01620F711D811DE5
:1005A000911D42E0660F771F881F991F4A95D1F76A
:1005B00008958F929F92AF92BF92CF92DF92EF9267
:1005C000FF926B017C010E94B4024B015C01C114DB
:1005D000D104E104F104B9F00E94B4026819790968
:1005E0008A099B09683E73408105910580F321E0EB
:1005F000C21AD108E108F10888EE880E83E0981E3F
:10060000A11CB11CE4CFFF90EF90DF90CF90BF9082
:10061000AF909F908F90089585ED8093BC0080915E
:10062000BC0084FDFCCF109212020895209182013B
:10063000260F3327331F21323105ECF420911202AB
:10064000FC0190E080E0243069F082E00895A09100
:1006500082012191AC014E595E4FA40FB52FB11DFF
:100660002C930196861798F380918201680F60930E
:10067000820180E0089581E008950895E091CB0122
:100680008091CA01E81730F4F0E0E453FE4F808116
:1006900090E008958FEF9FEF08959091CB018091A6
:1006A000CA012FEF3FEF981748F4E92FF0E0E45329
:1006B000FE4F208130E09F5F9093CB01C9010895E8
:1006C000CF92DF92EF92FF920F931F93CF93DF931E
:1006D0007C01CB018A0120913602222389F0EB01B3
:1006E0006B01C40ED51ECC15DD0569F06991D701EB
:1006F000ED91FC910190F081E02DC7010995F3CFB8
:10070000642F0E941603C801DF91CF911F910F91B2
:10071000FF90EF90DF90CF900895CF93DF931F92DB
:10072000CDB7DEB76983209136022223F9F02091FC
:100730003302203258F021E030E0FC013383228381
:1007400090E080E00F90DF91CF9108958091340286
:10075000E82FF0E0ED5EFD4F998190838F5F8093ED
:1007600034028093330281E090E0ECCF61E0CE016F
:1007700001960E941603F7CF90E080E00895FF9263
:100780000F931F93CF93DF93F62ED0E0C0E0082F96
:1007900010E0B8010C2E02C0759567950A94E2F737
:1007A000617080915B030E94280261E080915A038E
:1007B0000E94280260E0FF2089F0C730D10571F463
:1007C00080915B030E9460022196C830D10509F731
:1007D000DF91CF911F910F91FF90089580915A035F
:1007E0000E942802F1CFCF92DF92EF92FF920F93F7
:1007F0001F93CF93DF93EC011091A30281E08093CC
:10080000360210933502109234021092330263E4E0
:1008100086E493E00E948D0390913302913208F0B8
:1008200040C0809112028111FCCF82E080931202BD
:1008300081E0809311028FEF8093100210920F02DB
:1008400090930E02A3E1B2E0EEEEF1E080E09813A7
:10085000D9C01092ED018091ED01110F182B10936A
:10086000ED018091EC01813009F0D0C01092EC01D3
:100870008091ED018093BB008091BC0083FDF8CF97
:1008800085EC8093BC00809112028230E1F380916C
:1008900010028F3F31F080911002803211F0809170
:1008A000100210923402109233028091A30291E060
:1008B0009093360280933502909112029111FCCFF1
:1008C00091E090931202909311022FEF2093100267
:1008D00010920F0225E020930E029093ED0190916B
:1008E000ED01880F892B8093ED018091EC0181301F
:1008F00009F08EC01092EC018091ED018093BB0055
:100900008091BC0083FDF8CF85EC8093BC00809182
:1009100012028130E1F380910F0296E0863010F4EC
:1009200090910F02AEEEB1E0ECECF1E080E08913C3
:1009300071C01092CB018093CA018630F0F386E437
:1009400093E00E944D03C82E86E493E00E944D037D
:10095000D82E86E493E00E944D03E82E86E493E0CF
:100960000E944D03F82E86E493E00E944D03082F69
:1009700086E493E00E944D03182F60E07C2D6D29E2
:10098000072E000C880B990B0E94411360934302C1
:1009900070934402809345029093460260E07E2D5E
:1009A0006F29072E000C880B990B0E94411360934E
:1009B0004702709348028093490290934A0260E094
:1009C000702F612B072E000C880B990B0E9441138E
:1009D00060934B0270934C0280934D0290934E02B1
:1009E0008CE0E3E4F2E0DE0101900D928A95E1F7FC
:1009F000CE01DF91CF911F910F91FF90EF90DF908B
:100A0000CF9008952D9121938F5F21CF85EE39CF1F
:100A100085EE7BCF2D9121938F5F89CFFC010190D3
:100A20000020E9F73197AF01481B590BBC0189EA57
:100A300092E00C94B2008F929F92AF92BF920F936C
:100A40001F93CF93DF93CDB7DEB7A1970FB6F8947E
:100A5000DEBF0FBECDBF19A2423008F44AE08E01BE
:100A60000F5D1F4F842E912CB12CA12CA501940158
:100A70000E947B16E62FB901CA01EA30F4F4E05D6A
:100A8000D801EE938D01232B242B252B79F790E0B1
:100A900080E0109719F0CD010E940E05A1960FB6C7
:100AA000F894DEBF0FBECDBFDF91CF911F910F91A4
:100AB000BF90AF909F908F900895E95CE1CF4F92E7
:100AC0005F926F927F928F929F92AF92BF92CF92DE
:100AD000DF92EF92FF920F931F93CF936B017C01F4
:100AE000742EAC019B010E946316882399F08AE260
:100AF00091E0CF911F910F91FF90EF90DF90CF90F9
:100B0000BF90AF909F908F907F906F905F904F902D
:100B10000C940E0546015701E894B7F82FEF3FEF0C
:100B20004FE75FE7C501B4010E94631681110DC054
:100B30002FEF3FEF4FE75FE7C501B4010E943A1383
:100B400018161CF48EE291E0D4CF2FEF3FEF4FE761
:100B50005FE4C701B6010E94181618161CF482E360
:100B600091E0C7CF2FEF3FEF4FE75FECC701B60132
:100B70000E943A1387FDF3CF20E030E0A901C701BE
:100B8000B6010E943A1310E000E087FF0AC06DE250
:100B900089EA92E00E9492018C01F7FAF094F7F84A
:100BA000F094C0E060E070E080E09FE37C1641F0EC
:100BB00020E030E040E251E40E941F15CF5FF6CF05
:100BC000A70196010E94B3142B013C010E949115CC
:100BD0004B015C014AE00E941B057C01E00EF11E06
:100BE000CC23C1F1C501B4010E943F139B01AC01AC
:100BF000C301B2010E94B2144B015C016EE289EAAA
:100C000092E00E949201E80EF91EC15018F120E016
:100C100030E040E251E4C501B4010E94A0132B0171
:100C20003C010E9491154B01B12CA12C4AE0C50159
:100C3000B4010E941B05E80EF91EC501B4010E9413
:100C40003F139B01AC01C301B2010E94B2144B01DE
:100C50005C01DBCFC701CF911F910F91FF90EF9007
:100C6000DF90CF90BF90AF909F908F907F906F90CC
:100C70005F904F9008954F925F926F927F928F9204
:100C80009F92AF92BF92CF92DF92EF92FF921F930B
:100C9000CF93DF93CDB7DEB7A4970FB6F894DEBF3E
:100CA0000FBECDBF81E08093A20212E319A21AA267
:100CB0001BA21CA21D8E1E8E1F8E18A2198E1A8EAC
:100CC0001B8E1C8EC12CD12C7601460157012601AA
:100CD0003701CE0101960E94F30380914302909167
:100CE0004402A0914502B09146028D879E87AF874E
:100CF000B88B9C01AD01C301B2010E94B3142B015A
:100D00003C018091470290914802A0914902B09124
:100D10004A02898B9A8BAB8BBC8B9C01AD01C501C0
:100D2000B4010E94B3144B015C0180914B0290917D
:100D30004C02A0914D02B0914E028D8B9E8BAF8BD9
:100D4000B88F9C01AD01C701B6010E94B3146B01BD
:100D50007C012D853E854F855889CA01B9010E94C5
:100D6000A0139B01AC01698D7A8D8B8D9C8D0E94A7
:100D7000B314698F7A8F8B8F9C8F29893A894B891D
:100D80005C89CA01B9010E94A0139B01AC016D8D61
:100D90007E8D8F8D98A10E94B3146D8F7E8F8F8F63
:100DA00098A32D893E894F89588DCA01B9010E94A7
:100DB000A0139B01AC0169A17AA18BA19CA10E9407
:100DC000B31469A37AA38BA39CA365E070E080E0D1
:100DD00090E00E94D902115009F07BCF20E030E072
:100DE00048E452E4C301B2010E941F152B013C01EB
:100DF0004092730250927402609275027092760271
:100E000020E030E048E452E4C501B4010E941F151F
:100E10004B015C018092770290927802A092790255
:100E2000B0927A0220E030E048E452E4C701B60113
:100E30000E941F156B017C01C0927B02D0927C0244
:100E4000E0927D02F0927E0220E030E048E452E43D
:100E5000698D7A8D8B8D9C8D0E941F156D877E8785
:100E60008F87988BA3019201C301B2010E94A01346
:100E70009B01AC016D857E858F8598890E94B21497
:100E80000E94231660937F027093800280938102F8
:100E90009093820220E030E048E452E46D8D7E8D34
:100EA0008F8D98A10E941F152B013C01A501940173
:100EB000C501B4010E94A0139B01AC01C301B201A2
:100EC0000E94B2140E9423166093830270938402DE
:100ED000809385029093860220E030E048E452E45B
:100EE00069A17AA18BA19CA10E941F154B015C01F5
:100EF000A7019601C701B6010E94A0139B01AC0196
:100F0000C501B4010E94B2140E94231660938702A7
:100F1000709388028093890290938A02C0909E0207
:100F2000D0909F02E090A002F090A10220E030E07B
:100F3000A901C701B6010E94181618160CF060C06E
:100F4000C701B6010E949115F62E662309F46EC002
:100F50008091A202811102C00E943B066F2D70E0B9
:100F600090E080E00E9441134B015C01AC019B01C9
:100F700060917F0270918002809181029091820243
:100F80000E94A013609367027093680280936902C5
:100F900090936A02A501940160918302709184028A
:100FA00080918502909186020E94A01360936B024B
:100FB00070936C0280936D0290936E02A501940170
:100FC00060918702709188028091890290918A02D3
:100FD0000E94A01360936F0270937002809371025D
:100FE000909372026F2D70E090E080E00E943F13BA
:100FF00060939E0270939F028093A0029093A1023F
:10100000A4960FB6F894DEBF0FBECDBFDF91CF918F
:101010001F91FF90EF90DF90CF90BF90AF909F9087
:101020008F907F906F905F904F900895109267021D
:10103000109268021092690210926A0210926B027A
:1010400010926C0210926D0210926E0210926F025A
:10105000109270021092710210927202C3CF0F931D
:101060001F93CF93DF938C01EB01FC018081918171
:101070000097E1F06881798161157105A9F04281DD
:1010800053812C813D814217530770F00E949718BD
:101090008C819D81F801958384831D821C82DF9160
:1010A000CF911F910F9108950E943F1788819981D8
:1010B000F801918380838A819B81938382838C81D1
:1010C0009D8195838483198218821B821A82E5CFC1
:1010D000CF93DF93EC0188819981009711F00E94F2
:1010E0003F17198218821D821C821B821A82DF918F
:1010F000CF910895FC0180819181009711F00C94AB
:101100003F1708950F931F93CF93DF93EC018881CE
:101110009981009759F02A813B812617370730F0D3
:1011200081E0DF91CF911F910F9108958B016F5F47
:101130007F4F0E94C817009759F0998388831B83BB
:101140000A832C813D81232B59F7FC011082E8CFC3
:1011500080E0E7CFCF93DF93EC0170E060E00E9486
:101160008208811105C0CE01DF91CF910C946808EF
:101170001D821C8260E671E088819981DF91CF91A8
:101180000C9497189F92AF92BF92CF92DF92EF92FA
:10119000FF920F931F93CF93DF93EC016B015A01E2
:1011A00079012417350720F48B2D5901E42EF82EF0
:1011B000198218821B821A821D821C82CE010E9413
:1011C000AA08D60114960D911C91A016B10658F5E7
:1011D000E016F10608F48701D601ED91FC91119714
:1011E000E00FF11F90801082ED90FC90EA0CFB1C48
:1011F000E114F10471F0F70101900020E9F7319753
:101200005F01AE18BF08B501CE010E9482088111AE
:1012100017C0CE010E946808F60180819181080FF5
:10122000191FD8019C92CE01DF91CF911F910F9190
:10123000FF90EF90DF90CF90BF90AF909F90089578
:10124000BD82AC82B701888199810E949718E4CF52
:101250001F920F920FB60F9211242F933F934F932B
:101260005F936F937F938F939F93AF93BF93EF930E
:10127000FF9389EA92E00E947001FF91EF91BF9184
:10128000AF919F918F917F916F915F914F913F911E
:101290002F910F900FBE0F901F9018951F920F92D5
:1012A0000FB60F9211242F938F939F93EF93FF9379
:1012B000E091B902F091BA028081E091BF02F09111
:1012C000C00282FD1BC090818091C2028F5F8F732C
:1012D0002091C302821741F0E091C202F0E0E7558D
:1012E000FD4F958F8093C202FF91EF919F918F9157
:1012F0002F910F900FBE0F901F9018958081F4CF03
:101300001F920F920FB60F9211242F933F938F933A
:101310009F93AF93BF938091A5029091A602A09155
:10132000A702B091A8023091A50123E0230F2D3729
:1013300058F50196A11DB11D2093A5018093A5022A
:101340009093A602A093A702B093A8028091A60151
:101350009091A701A091A801B091A9010196A11DAA
:10136000B11D8093A6019093A701A093A801B0930B
:10137000A901BF91AF919F918F913F912F910F90B4
:101380000FBE0F901F90189526E8230F0296A11DFF
:10139000B11DD2CF1F920F920FB60F9211242F932F
:1013A0003F934F935F936F937F938F939F93AF93ED
:1013B000BF93EF93FF938091B900887F803609F443
:1013C0004AC0F0F5883209F4A5C018F5803109F457
:1013D00099C0B8F4882309F4F5C0883009F492C0A4
:1013E000FF91EF91BF91AF919F918F917F916F91FD
:1013F0005F914F913F912F910F900FBE0F901F90D3
:101400001895883109F486C0803251F78093100214
:1014100014C0803409F49BC040F48033B9F388339E
:10142000F9F68093100285ECAEC0803509F483C0D4
:10143000883509F494C0883499F60E940C03D0CF03
:10144000883909F48AC038F5883729F050F488368D
:1014500011F0803729F683E0809312021092A401E4
:1014600055C0883809F479C0803919F0803809F0FE
:10147000B7CF8091A401803208F06FC0E091A40141
:1014800081E08E0F8093A4018091BB00F0E0EC57C7
:10149000FE4F80833BC0803B39F0D0F4803A09F4A2
:1014A00077C0883A09F09CCF84E0809312021092B2
:1014B000830110928201F0E0E0E0099580918201C1
:1014C00081110FC081E0809382011092620109C0F6
:1014D000803C09F4A8CF883C09F4A5CF883B09F0EB
:1014E0007FCFE091830181E08E0F80938301F0E054
:1014F000EE59FE4F80818093BB00909183018091D3
:10150000820129C08091ED018093BB0085EC80931E
:10151000BC0066CF90910F0280910E02981758F58B
:10152000E0910F0281E08E0F80930F02F0E0E25114
:10153000FE4F8081E9CFE0910F0281E08E0F809312
:101540000F028091BB00F0E0E251FE4F808390914A
:101550000F0280910E029817C8F285E8D8CFE0916B
:101560000F0281E08E0F80930F028091BB00F0E0AC
:10157000E251FE4F80838091110281115ECF81E0A4
:101580008093EC0184EA8093BC001092120228CF71
:1015900085EC8093BC00109212028091A4018032ED
:1015A00030F4E091A401F0E0EC57FE4F108260911E
:1015B000A40170E084E891E0F0E0E0E00995109289
:1015C000A4010ECF1092100238CFE9EAF2E01382A4
:1015D000128288EE93E0A0E0B0E084839583A68336
:1015E000B7832AE031E03183208325EC30E0358772
:1015F000248724EC30E03787268720EC30E0318BDD
:10160000208B21EC30E0338B228B22EC30E0358BC9
:10161000248B26EC30E0378B268B118E128E138EA6
:10162000148EE6E4F3E01382128284839583A6830A
:10163000B7838CE191E091838083EAE5F3E08EE06B
:1016400080838FE0818380E182830E94910260E049
:101650008EE80E94BF0360E080E00E94BF030E940A
:1016600056020E94910260E080E90E94BF0360E0A0
:1016700080E00E94BF030E94560280915603909121
:101680005703A0915803B09159038093520390934C
:101690005303A0935403B09355030895CF93DF935E
:1016A000CDB7DEB76E970FB6F894DEBF0FBECDBFD5
:1016B000789484B5826084BD84B5816084BD85B52D
:1016C000826085BD85B5816085BD80916E00816039
:1016D00080936E00109281008091810082608093DF
:1016E00081008091810081608093810080918000E1
:1016F0008160809380008091B10084608093B1000C
:101700008091B00081608093B00080917A00846005
:1017100080937A0080917A00826080937A00809131
:101720007A00816080937A0080917A00806880934B
:101730007A001092C100EAEAF1E088E0DF011D9230
:101740008A95E9F78091AB01807888638093AB013B
:101750008091AC01807C83628093AC018091AD016B
:10176000807C87628093AD018091AE01807F87602D
:101770008093AE018091AF01887F85608093AF0137
:1017800086E18093B0010E94910260E08EEB0E949E
:10179000BF0342EBE42E41E0F42E0AEA11E060E0E0
:1017A000F80181918F010E94BF03E016F106B9F79D
:1017B0000E945602E091B902F091BA0282E0808361
:1017C000E091B502F091B6021082E091B702F0917B
:1017D000B80280E180831092C102E091BD02F091D5
:1017E000BE0286E08083E091BB02F091BC02808162
:1017F00080618083E091BB02F091BC0280818860AF
:101800008083E091BB02F091BC028081806880837C
:10181000E091BB02F091BC0280818F7D808361E00A
:1018200087E00E94600261E088E00E94600261E05F
:1018300086E00E94600261E08AE00E94600261E04E
:101840008BE00E94600261E089E00E94600268E82B
:1018500073E180E090E00E94D9020E943B068091F3
:10186000A202811102C00E943B0620E030E040E469
:1018700050E460917F02709180028091810290918A
:1018800082020E94A01360936702709368028093A3
:10189000690290936A0220E030E040E450E46091F5
:1018A00083027091840280918502909186020E9449
:1018B000A01360936B0270936C0280936D029093FF
:1018C0006E0220E030E040E450E4609187027091C5
:1018D00088028091890290918A020E94A0136093ED
:1018E0006F0270937002809371029093720280E095
:1018F00090E0A0E4B0E480939E0290939F02A093B6
:10190000A002B093A1022AE0322E38E1232EC0902B
:10191000C601D090C701E090C801F090C901C7018D
:10192000B6010E94C0159B01AC01C701B6010E941F
:101930003A13811127C08090520390905303A090D6
:101940005403B090550320E030E044E353E4C70172
:10195000B6010E941816A701960118160CF0B8C11E
:1019600060E070E084EB93E40E94B214A50194015E
:101970000E94B314609356037093570380935803E7
:10198000909359030E94910261E08FEB0E94BF0384
:101990009AEAC92E91E0D92EF12CE12CA12C61E01C
:1019A00080915A030E94280260E080915A030E94AD
:1019B000280220915B0330E0F901E751FF4F849149
:1019C000F901EB52FF4F9490F901EF53FF4FB490A0
:1019D000BB2009F482C181110E94FF01EB2DF0E0D0
:1019E000EE0FFF1FE954FF4FA591B491EC9181E0F8
:1019F00090E0A0E0B0E00E2C04C0880F991FAA1F51
:101A0000BB1F0A94D2F79E2209F467C1A82AFFEFF0
:101A1000EF1AFF0A88E0E816F10409F0C0CFD601FA
:101A2000AD926D010A171B0709F0B6CF0E9456024E
:101A30006091AA01862F829587706F70562E839DC4
:101A4000500C112450925D036091AB01862F82955A
:101A500087706F70662E839D600C112460925E0308
:101A60006091AC01862F829583706F70762E839D76
:101A7000700C112470925F038091AF018770809386
:101A800060036091AD01862F829583706F70F62E92
:101A9000839DF00C1124F09261036091AE0164FB10
:101AA000882780F96F70E62E839DE00C1124E09268
:101AB00062036091B001862F82958F706F7070E025
:101AC000839D600D711D11246053784F70936403E2
:101AD00060936303072E000C880B990B0E9441133F
:101AE00020E030E04AEF54E40E94B21420E03FE9E5
:101AF00046EB53E40E94A0134B015C016E2D70E095
:101B000090E080E00E943F1320E030E040E85FE397
:101B10000E94B2142BEA3EE743EF51E40E94A01367
:101B20009B01AC01C501B4010E94B3144B015C01DF
:101B30006F2D70E090E080E00E943F1320E030E0E5
:101B400040E85FE30E94B2149B01AC01C501B401FF
:101B50000E94B3146B017C01872D622D0E946F16C9
:101B6000682F70E090E080E00E9441139B01AC017F
:101B7000C701B6010E94B3142DE533E54CE75FE3DE
:101B80000E94A01325E83BEE48EC52E40E94B314F7
:101B90002FE135E843E052E40E94B3146B017C016D
:101BA000662D70E090E080E00E943F1320E030E07E
:101BB00040E752E40E941F154B015C01672D70E065
:101BC00090E080E00E943F139B01AC01C501B4018D
:101BD0000E94B3144B015C01652D70E090E080E041
:101BE0000E943F1320E030E041E655E40E941F15BB
:101BF0009B01AC01C501B4010E94B31420E030E0A8
:101C000040E751E40E94A0139B01AC01C701B6015B
:101C10000E94B3146B017C0120E030E044EB53E4FC
:101C20000E941F150E94C01520E030E044EB53E4F1
:101C30000E94A0139B01AC01C701B6010E94B2141F
:101C40006093C6017093C7018093C8019093C90146
:101C500020E030E040E751E40E941F156093B60198
:101C60007093B7018093B8019093B90189EA92E02B
:101C70000E945001181619060CF0E5C01A8E198E34
:101C80001C8E1B8E1E8E1D8ECE0149960E94AA08A8
:101C90000E94020197FD30C089831A82ED8CFE8C70
:101CA000BFEFEB1AFB0AB701CE0149960E948208EA
:101CB000882371F3298D3A8D8D8D9E8DBE016F5FC6
:101CC0007F4F820F931F0E949718FE8EED8EE0CFFC
:101CD000C501B4010E94B2144DCE81E090E0A0E0B5
:101CE000B0E00E2C04C0880F991FAA1FBB1F0A94D6
:101CF000D2F78095A8228BCE1C8A1B8A1E8A1D8A49
:101D0000188E1F8ACE0143960E94AA081E861D8641
:101D1000188A1F861A8A198ACE010D960E94AA086F
:101D2000F12CE12CBE2CCF2C8D8D9E8DE816F90662
:101D300008F04DC0EFEFEE1AFE0A97014B2D5C2D17
:101D4000BE01675E7F4FCE0101960E94C2088D8161
:101D50009E81892B51F066E371E089819A810E940E
:101D60008E18DD24D394892B09F0D12CCE01019655
:101D70000E947A08DD20B1F22B2D3C2D50E040E08E
:101D8000BE01675E7F4FCE0101960E94C208BE0170
:101D90006F5F7F4FCE010D960E942F08CE010196F6
:101DA0000E947A082D8D3E8DA701BE01675E7F4F90
:101DB000CE0101960E94C208BE016F5F7F4FCE0127
:101DC00043960E942F08CE0101960E947A088B89C3
:101DD0009C8920E030E0A901009721F00E94C51104
:101DE0009B01AC0160E070E084EB92E40E94B214CD
:101DF0006093B2017093B3018093B4019093B501E5
:101E00008D859E85009709F489C20E94C511609353
:101E1000560370935703809358039093590360932C
:101E20005203709353038093540390935503CE0150
:101E30000D960E947A08CE0143960E947A08CE0140
:101E400049960E947A0820E030E048EC52E4609124
:101E5000BA017091BB018091BC019091BD010E94BB
:101E6000A0130E94C0156B017C0120E030E048EC1B
:101E700052E46091B2017091B3018091B4019091EC
:101E8000B5010E94A0130E94C0154B015C0120E027
:101E900030E048EC52E4C701B6010E941F152B0147
:101EA0003C0120E030E048EC52E4C501B4010E945E
:101EB0001F159B01AC01C301B2010E943A1361E0FE
:101EC000811160E087E00E942802A5019401C7010A
:101ED000B6010E943A1361E087FF60E088E00E944B
:101EE0002802A5019401C701B6010E94181661E0FD
:101EF00018160CF060E086E00E94280220E030E036
:101F000048EC52E46091BE017091BF018091C00124
:101F10009091C1010E94A0130E94C0156B017C0129
:101F200020E030E048EC52E4609156037091570392
:101F300080915803909159030E94A0130E94C015EC
:101F40004B015C01AC019B01C701B6010E943A1331
:101F500061E0811160E08AE00E942802A5019401FD
:101F6000C701B6010E943A1361E087FF60E08BE091
:101F70000E942802A5019401C701B6010E9418160B
:101F800061E018160CF060E089E00E9428022FB78B
:101F9000F8948091A5029091A602A091A702B09119
:101FA000A8022FBF8093C2019093C301A093C401E4
:101FB000B093C501CE0101960E94F3038091A20265
:101FC000C0909602D0909702E0909802F09099020B
:101FD000882309F4A7C120917302309174024091C3
:101FE0007502509176026091430270914402809193
:101FF0004502909146020E94B214A70196010E94E8
:10200000A01360935B0270935C0280935D029093D7
:102010005E022091770230917802409179025091CE
:102020007A02609147027091480280914902909132
:102030004A020E94B214A70196010E94A013609365
:102040005F0270936002809361029093620220911C
:102050007B0230917C0240917D0250917E02609122
:102060004B0270914C0280914D0290914E020E9461
:10207000B214A70196010E94A013609363027093AB
:102080006402809365029093660220E030E0A9012B
:1020900060919E0270919F028091A0029091A10296
:1020A0000E943A13882309F481C0C0905B02D0904B
:1020B0005C02E0905D02F0905E0220E030E0A90159
:1020C000C701B6010E941816181624F0F7FAF0940A
:1020D000F7F8F094A7019601609167027091680289
:1020E0008091690290916A020E941816181644F4B1
:1020F00010925B0210925C0210925D0210925E02DE
:10210000C0905F02D0906002E0906102F0906202A5
:1021100020E030E0A901C701B6010E941816181688
:1021200024F0F7FAF094F7F8F094A7019601609183
:102130006B0270916C0280916D0290916E020E9410
:102140001816181644F410925F0210926002109252
:10215000610210926202C0906302D0906402E0902B
:102160006502F090660220E030E0A901C701B601E7
:102170000E941816181624F0F7FAF094F7F8F09465
:10218000A701960160916F027091700280917102B7
:10219000909172020E941816181644F4109263026D
:1021A000109264021092650210926602C0905B0267
:1021B000D0905C02E0905D02F0905E022AE037ED84
:1021C00043E25CE360915F02709160028091610282
:1021D000909162020E94A0139B01AC016091BE012C
:1021E0007091BF018091C0019091C1010E94B31410
:1021F0006093BE017093BF018093C0019093C101B1
:102200002AE037ED43E25CE3C701B6010E94A01368
:102210009B01AC016091BA017091BB018091BC013E
:102220009091BD010E94B3146093BA017093BB01F9
:102230008093BC019093BD0188E391E00E940E055C
:102240006091BE017091BF018091C0019091C10168
:1022500042E00E945F0580E491E00E940E056091DB
:10226000BA017091BB018091BC019091BD0142E027
:102270000E945F058AE491E00E940E056091C6010C
:102280007091C7018091C8019091C90142E00E94FC
:102290005F0584E591E00E940E056091B6017091A2
:1022A000B7018091B8019091B90142E00E945F05A9
:1022B0008EE591E00E940E052FB7F8946091A5027B
:1022C0007091A6028091A7029091A8022FBFC090A2
:1022D000C201D090C301E090C401F090C5016C1917
:1022E0007D098E099F090E943F139B01AC0160E0AC
:1022F00070E080E291E40E94B2140E9491150E9465
:10230000D90280E090E0892B09F401CB0E945C01A6
:10231000882309F4F8CA0E940000F5CA60E070E062
:10232000CB0175CDA70196016091430270914402E3
:1023300080914502909146020E94A01360935B0237
:1023400070935C0280935D0290935E02A7019601F8
:1023500060914702709148028091490290914A022F
:102360000E94A01360935F027093600280936102E9
:1023700090936202A701960160914B0270914C020A
:1023800080914D0290914E0276CE662777270C946D
:10239000C911B0E0A0E0EFECF1E10C9472145C0123
:1023A0007B016115710519F0DB018D939C9385010B
:1023B0000F5F1F4FF501D0818D2F90E00E94191300
:1023C0006C01892BB9F5DD32B9F50F5F1F4FD501CF
:1023D0001196DC91C1E05801F1E0AF1AB10843E079
:1023E00050E060E770E0C5010E942213892B69F577
:1023F000680182E0C80ED11C45E050E06BE670E059
:10240000C6010E942213892B21F4680197E0C90EAE
:10241000D11CE114F10419F0D701CD92DC9260E0F7
:1024200070E080E89FEFC111FFC060E070E080E8DD
:102430009FE7FAC05801BBCFDB3229F485010E5F5C
:102440001F4FF501D181C0E0C6CF43E050E068E600
:1024500070E0C5010E942213892BE9F0F80110E019
:1024600000E020E030E0A9015F01B0ED8B2E8D0E81
:1024700089E08815C8F19C2E689491F88C2F88709B
:10248000C2FF16C0811102C00F5F1F4F3196D501E8
:10249000DC91C92DE9CFE114F10429F00E5F1F4F43
:1024A000F7011183008360E070E080EC9FE7BCC01F
:1024B000882311F001501109A5E0B0E00E946114D9
:1024C0009B01AC01220F331F441F551F280D311DE6
:1024D000411D511D283999E93907490799E15907E3
:1024E000A8F2C6609C2ED2CFAEEF8A1206C0C3FD02
:1024F0003CC09C2E689493F8C9CFDF7DD534A9F5F4
:1025000080818D3239F4C061DF011296818162E0F1
:1025100070E006C0DF018B32C1F3119661E070E01C
:1025200080535D01A61AB70A8A30F8F4E0E8CE16A7
:10253000ECE0DE065CF4B601660F771F660F771FCE
:10254000C60ED71ECC0CDD1CC80ED11C5D01FFEFE2
:10255000AF1ABF0A8C9180538A30A8F1C4FF03C020
:10256000D194C194D1080C0D1D1DC1FF09C0E11407
:10257000F10431F081E0A81AB108D701AD92BC9204
:10258000CA01B9010E943F13C370C33009F49058C7
:102590004B015C0120E030E0A9010E943A1388233E
:1025A00009F440C0CFE9D0E017FF05C011950195AF
:1025B0001109C7E8D0E06E01B8E1CB1AD10880E27A
:1025C000E82EF12C0FC0D501B1CFFE012591359138
:1025D000459154910E191F09C501B4010E94A01321
:1025E0004B015C01D501C4010E151F0574F724973A
:1025F000F594E794CC16DD06A9F78A2F880F8B2F68
:10260000881F8F3F49F020E030E0A901C501B401E7
:102610000E943A13811106C082E290E09093660313
:1026200080936503C501B401CDB7DEB7ECE00C942F
:102630008E1491110C940D14803219F0895085502C
:10264000C8F70895FB01DC014150504088F08D919E
:1026500081341CF08B350CF4805E659161341CF084
:102660006B350CF4605E861B611171F3990B089554
:10267000881BFCCF0E947C1308F481E00895E89445
:1026800009C097FB3EF490958095709561957F4FBA
:102690008F4F9F4F9923A9F0F92F96E9BB27939568
:1026A000F695879577956795B795F111F8CFFAF478
:1026B000BB0F11F460FF1BC06F5F7F4F8F4F9F4FA9
:1026C00016C0882311F096E911C0772321F09EE807
:1026D000872F762F05C0662371F096E8862F70E06D
:1026E00060E02AF09A95660F771F881FDAF7880F47
:1026F0009695879597F90895990F0008550FAA0B9D
:10270000E0E8FEEF16161706E807F907C0F0121604
:102710001306E407F50798F0621B730B840B950B07
:1027200039F40A2661F0232B242B252B21F408955C
:102730000A2609F4A140A6958FEF811D811D0895F9
:102740000E94B3130C9427140E94191438F00E94AD
:10275000201420F0952311F00C9410140C941614EE
:1027600011240C945B140E94381470F3959FC1F3EC
:10277000950F50E0551F629FF001729FBB27F00D2F
:10278000B11D639FAA27F00DB11DAA1F649F662784
:10279000B00DA11D661F829F2227B00DA11D621FD3
:1027A000739FB00DA11D621F839FA00D611D221F8D
:1027B000749F3327A00D611D231F849F600D211D71
:1027C000822F762F6A2F11249F5750409AF0F1F0F4
:1027D00088234AF0EE0FFF1FBB1F661F771F881F5D
:1027E00091505040A9F79E3F510580F00C94101471
:1027F0000C945B145F3FE4F3983ED4F38695779591
:102800006795B795F795E7959F5FC1F7FE2B880F02
:10281000911D9695879597F908959927882708958A
:1028200097F99F6780E870E060E008959FEF80EC83
:10283000089500240A941616170618060906089526
:1028400000240A9412161306140605060895092E8C
:102850000394000C11F4882352F0BB0F40F4BF2BFB
:1028600011F460FF04C06F5F7F4F8F4F9F4F08953B
:1028700057FD9058440F551F59F05F3F71F0479531
:10288000880F97FB991F61F09F3F79F08795089516
:10289000121613061406551FF2CF4695F1DF08C035
:1028A000161617061806991FF1CF86957105610552
:1028B00008940895E894BB2766277727CB0197F9FA
:1028C00008950E94A314A59F900DB49F900DA49FFE
:1028D000800D911D112408952F923F924F925F9287
:1028E0006F927F928F929F92AF92BF92CF92DF9220
:1028F000EF92FF920F931F93CF93DF93CDB7DEB785
:10290000CA1BDB0B0FB6F894DEBF0FBECDBF099418
:102910002A88398848885F846E847D848C849B846F
:10292000AA84B984C884DF80EE80FD800C811B817D
:10293000AA81B981CE0FD11D0FB6F894DEBF0FBEAC
:10294000CDBFED010895A29FB001B39FC001A39F29
:10295000700D811D1124911DB29F700D811D1124D8
:10296000911D08955058BB27AA270E94CA140C94A1
:1029700027140E94191438F00E94201420F039F412
:102980009F3F19F426F40C9416140EF4E095E7FB1F
:102990000C941014E92F0E94381458F3BA176207E8
:1029A00073078407950720F079F4A6F50C945A1460
:1029B0000EF4E0950B2EBA2FA02D0B01B90190015A
:1029C0000C01CA01A0011124FF27591B99F0593F9E
:1029D00050F4503E68F11A16F040A22F232F342FE6
:1029E0004427585FF3CF469537952795A795F04034
:1029F0005395C9F77EF41F16BA0B620B730B840B49
:102A0000BAF09150A1F0FF0FBB1F661F771F881F00
:102A1000C2F70EC0BA0F621F731F841F48F4879558
:102A200077956795B795F7959E3F08F0B0CF93954A
:102A3000880F08F09927EE0F9795879508950E94C3
:102A400033150C9427140E94201458F00E94191476
:102A500040F029F45F3F29F00C94101451110C94AC
:102A60005B140C9416140E94381468F39923B1F384
:102A7000552391F3951B550BBB27AA2762177307A4
:102A8000840738F09F5F5F4F220F331F441FAA1F38
:102A9000A9F335D00E2E3AF0E0E832D091505040F4
:102AA000E695001CCAF72BD0FE2F29D0660F771FA2
:102AB000881FBB1F261737074807AB07B0E809F088
:102AC000BB0B802DBF01FF2793585F4F3AF09E3F0D
:102AD000510578F00C9410140C945B145F3FE4F3F0
:102AE000983ED4F3869577956795B795F7959F5F50
:102AF000C9F7880F911D9695879597F90895E1E09C
:102B0000660F771F881FBB1F621773078407BA07FA
:102B100020F0621B730B840BBA0BEE1F88F7E09555
:102B200008950E94401488F09F5798F0B92F992774
:102B3000B751B0F0E1F0660F771F881F991F1AF0A8
:102B4000BA95C9F714C0B13091F00E945A14B1E09F
:102B500008950C945A14672F782F8827B85F39F09E
:102B6000B93FCCF3869577956795B395D9F73EF441
:102B700090958095709561957F4F8F4F9F4F0895E9
:102B80000E94001690F09F3748F4911116F00C94B3
:102B90005B1460E070E080E89FEB089526F41B165C
:102BA000611D711D811D0C94D7150C94F21588239D
:102BB00071F4772321F09850872B762F07C0662376
:102BC00011F499270DC09051862B70E060E02AF037
:102BD0009A95660F771F881FDAF7880F9695879565
:102BE00097F908959F3F31F0915020F4879577959C
:102BF0006795B795880F911D9695879597F90895D4
:102C00000E944014A0F0BEE7B91788F4BB279F3894
:102C100060F41616B11D672F782F8827985FF7CFBD
:102C2000869577956795B11D93959639C8F3089564
:102C30000E947C1308F48FEF089519F416F40C9495
:102C400016140C94F2150E944014B8F39923C9F39A
:102C5000B6F39F57550B87FF0E9468160024A0E625
:102C600040EA900180585695979528F4805C660F4D
:102C7000771F881F20F026173707480730F4621B9C
:102C8000730B840B202931294A2BA695179407949E
:102C9000202531254A2758F7660F771F881F20F017
:102CA00026173707480730F4620B730B840B200D8F
:102CB000311D411DA09581F7B901842F9158880FCE
:102CC0009695879508950E947C13880B990B08951B
:102CD00091505040660F771F881FD2F70895991BB7
:102CE00079E004C0991F961708F0961B881F7A9503
:102CF000C9F780950895A1E21A2EAA1BBB1BFD01FE
:102D00000DC0AA1FBB1FEE1FFF1FA217B307E407CA
:102D1000F50720F0A21BB30BE40BF50B661F771F22
:102D2000881F991F1A9469F7609570958095909502
:102D30009B01AC01BD01CF010895EE0FFF1F05906F
:102D4000F491E02D09940F931F93CF93DF9382307A
:102D5000910510F482E090E0E0916903F0916A033C
:102D600030E020E0B0E0A0E0309799F42115310583
:102D700009F44AC0281B390B24303105D8F58A8163
:102D80009B816115710589F1FB0193838283FE01AB
:102D900011C0408151810281138148175907E0F029
:102DA0004817590799F4109761F012960C931297EF
:102DB00013961C933296CF01DF91CF911F910F9103
:102DC00008950093690310936A03F4CF2115310528
:102DD00051F04217530738F0A901DB019A01BD01F8
:102DE000DF01F801C1CFEF01F9CF90936A0380931F
:102DF0006903CDCFFE01E20FF31F8193919322501F
:102E0000310939832883D7CF209167033091680334
:102E1000232B41F420910201309103013093680388
:102E200020936703209100013091010121153105A4
:102E300041F42DB73EB74091040150910501241B88
:102E4000350BE0916703F0916803E217F307A0F4F4
:102E50002E1B3F0B2817390778F0AC014E5F5F4FF0
:102E60002417350748F04E0F5F1F509368034093B7
:102E70006703819391939FCFF0E0E0E09CCFCF93E5
:102E8000DF930097E9F0FC01329713821282A09140
:102E90006903B0916A03ED0130E020E01097A1F4DE
:102EA00020813181820F931F209167033091680345
:102EB0002817390709F061C0F0936803E0936703AE
:102EC000DF91CF910895EA01CE17DF07E8F54A8137
:102ED0005B819E0141155105B1F7E901FB83EA834E
:102EE00049915991C40FD51FEC17FD0761F48081FA
:102EF00091810296840F951FE901998388838281CD
:102F000093819B838A83F0E0E0E012968D919C91FF
:102F100013970097B9F52D913C911197CD01029629
:102F2000820F931F20916703309168032817390798
:102F300039F6309751F510926A0310926903B093F5
:102F40006803A0936703BCCFD383C28340815181C0
:102F5000840F951FC817D90761F44E5F5F4F8881B2
:102F60009981480F591F518340838A819B819383A4
:102F700082832115310509F0B0CFF0936A03E09305
:102F800069039ECFFD01DC01C0CF13821282D7CF2F
:102F9000B0E0A0E0EEECF7E10C946E148C01009729
:102FA00051F4CB010E94A3168C01C801CDB7DEB746
:102FB000E0E10C948A14FC01E60FF71F9C012250FB
:102FC0003109E217F30708F49DC0D901CD91DC91D6
:102FD0001197C617D70798F0C530D10530F3CE0149
:102FE00004978617970708F3C61BD70B2297C19340
:102FF000D1936D937C93CF010E943F17D6CF5B0195
:10300000AC1ABD0A4C018C0E9D1EA0916903B091B3
:103010006A03512C412CF12CE12C109731F5809151
:103020006703909168038815990509F05CC04616FE
:10303000570608F058C08091000190910101009757
:1030400041F48DB79EB74091040150910501841B56
:10305000950BE817F90708F055C0F0936803E09363
:103060006703F90171836083A0CF8D919C911197C3
:1030700012966C90129713967C901397A815B90529
:1030800059F56C0142E0C40ED11CCA14DB0420F1D6
:10309000AC014A195B09DA011296159780F0628239
:1030A000738251834083D9016D937C93E114F104C1
:1030B00071F0D7011396FC93EE93129776CF229678
:1030C0008C0F9D1FF90191838083F301EFCFF09363
:1030D0006A03E093690369CF4816590608F42C0186
:1030E0007D01D3019ACFCB010E94A3167C010097EA
:1030F00049F0AE01B8010E948518C8010E943F172F
:10310000870153CF10E000E050CFFB01DC0102C08B
:1031100001900D9241505040D8F70895FB01DC0119
:103120008D91019080190110D9F3990B0895FB013D
:10313000DC0101900D920020E1F70895F894FFCF93
:1031400000006B038000000000009201B200DF006D
:10315000DF015001EE004201000000008D0360031A
:10316000BC033D03AA004D033E036E616E00696E11
:1031700066006F7666002C0020596177203D2000A4
:10318000205069746368203D2000204C53545F64D4
:10319000203D2000204C53545F68203D20000D0A44
:0231A00000002D
:107E0000112484B714BE81FFF0D085E080938100F7
:107E100082E08093C00088E18093C10086E0809377
:107E2000C20080E18093C4008EE0C9D0259A86E02C
:107E300020E33CEF91E0309385002093840096BBD3
:107E4000B09BFECF1D9AA8958150A9F7CC24DD24C4
:107E500088248394B5E0AB2EA1E19A2EF3E0BF2EE7
:107E6000A2D0813461F49FD0082FAFD0023811F036
:107E7000013811F484E001C083E08DD089C08234E0
:107E800011F484E103C0853419F485E0A6D080C0E4
:107E9000853579F488D0E82EFF2485D0082F10E0AE
:107EA000102F00270E291F29000F111F8ED06801E7
:107EB0006FC0863521F484E090D080E0DECF843638
:107EC00009F040C070D06FD0082F6DD080E0C81688
:107ED00080E7D80618F4F601B7BEE895C0E0D1E017
:107EE00062D089930C17E1F7F0E0CF16F0E7DF06D8
:107EF00018F0F601B7BEE89568D007B600FCFDCFD4
:107F0000A601A0E0B1E02C9130E011968C91119780
:107F100090E0982F8827822B932B1296FA010C0160
:107F200087BEE89511244E5F5F4FF1E0A038BF0790
:107F300051F7F601A7BEE89507B600FCFDCF97BE46
:107F4000E89526C08437B1F42ED02DD0F82E2BD052
:107F50003CD0F601EF2C8F010F5F1F4F84911BD097
:107F6000EA94F801C1F70894C11CD11CFA94CF0C13
:107F7000D11C0EC0853739F428D08EE10CD085E9AC
:107F80000AD08FE07ACF813511F488E018D01DD067
:107F900080E101D065CF982F8091C00085FFFCCF94
:107FA0009093C60008958091C00087FFFCCF809118
:107FB000C00084FD01C0A8958091C6000895E0E648
:107FC000F0E098E1908380830895EDDF803219F02E
:107FD00088E0F5DFFFCF84E1DECF1F93182FE3DFCA
:107FE0001150E9F7F2DF1F91089580E0E8DFEE27F6
:047FF000FF270994CA
:027FFE00040479
:0400000300007E007B
:00000001FF
